:020000040800F2
:1000000000300020955A0008E55A0008E55A00081B
:10001000E55A0008E55A0008E55A0008000000000B
:100020000000000000000000000000000D59000862
:10003000E55A000800000000115900081559000891
:10004000E55A0008E55A0008E55A0008E55A000894
:10005000E55A0008E55A0008E55A00081959000851
:10006000E55A000821590008E55A000829590008F6
:1000700035590008E55A0008E55A0008E55A000815
:10008000E55A0008E55A0008E55A0008E55A000854
:10009000E55A0008E55A0008E55A0008E55A000844
:1000A000E55A0008E55A0008E55A0008E55A000834
:1000B000E55A0008E55A000800000000E55A00086B
:1000C000E55A00080000000000000000E55A0008A2
:1000D00000000000E55A0008E55A0008E55A00084B
:1000E000E55A0008E55A0008000000000000000082
:1000F0000000000000000000000000000000000000
:1001000000000000000000000000000000000000EF
:100110000000000000000000E55A0008E55A000851
:1001200000000000000000000000000000000000CF
:1001300000000000000000000000000000000000BF
:10014000E55A0008E55A0008000000000000000021
:10015000000000000000000000000000000000009F
:10016000000000000000000000000000000000008F
:10017000000000000000000000000000000000007F
:0801800000000000E55A000830
:1001880010B5054C237833B9044B13B10448AFF3C9
:1001980000800123237010BDA80700200000000084
:1001A800EC7C000808B5034B1BB103490348AFF3C7
:1001B800008008BD00000000AC070020EC7C0008AF
:1001C80081F0004102E000BF83F0004330B54FEA00
:1001D80041044FEA430594EA050F08BF90EA020F6D
:1001E8001FBF54EA000C55EA020C7FEA645C7FEA00
:1001F800655C00F0E2804FEA5454D4EB5555B8BF23
:100208006D420CDD2C4480EA020281EA030382EA93
:10021800000083EA010180EA020281EA0303362D25
:1002280088BF30BD11F0004F4FEA01314FF4801CF8
:100238004CEA113102D0404261EB410113F0004F0A
:100248004FEA03334CEA133302D0524263EB4303C1
:1002580094EA050F00F0A780A4F10104D5F1200E5F
:100268000DDB02FA0EFC22FA05F2801841F10001BA
:1002780003FA0EF2801843FA05F359410EE0A5F18E
:1002880020050EF1200E012A03FA0EFC28BF4CF0BF
:10029800020C43FA05F3C01851EBE37101F0004575
:1002A80007D54FF0000EDCF1000C7EEB00006EEB82
:1002B8000101B1F5801F1BD3B1F5001F0CD349080C
:1002C8005FEA30004FEA3C0C04F101044FEA445263
:1002D80012F5800F80F09A80BCF1004F08BF5FEAEA
:1002E800500C50F1000041EB045141EA050130BDCA
:1002F8005FEA4C0C404141EB010111F4801FA4F16D
:100308000104E9D191F0000F04BF01460020B1FAC1
:1003180081F308BF2033A3F10B03B3F120020CDAF9
:100328000C3208DD02F1140CC2F10C0201FA0CF0D7
:1003380021FA02F10CE002F11402D8BFC2F1200C3C
:1003480001FA02F120FA0CFCDCBF41EA0C019040F2
:10035800E41AA2BF01EB0451294330BD6FEA04043B
:100368001F3C1CDA0C340EDC04F11404C4F1200226
:1003780020FA04F001FA02F340EA030021FA04F338
:1003880045EA030130BDC4F10C04C4F1200220FA8F
:1003980002F001FA04F340EA0300294630BD21FACD
:1003A80004F0294630BD94F0000F83F4801306BF93
:1003B80081F480110134013D4EE77FEA645C18BF87
:1003C8007FEA655C29D094EA050F08BF90EA020F1E
:1003D80005D054EA000C04BF1946104630BD91EA16
:1003E800030F1EBF0021002030BD5FEA545C05D119
:1003F8004000494128BF41F0004130BD14F5800458
:100408003CBF01F5801130BD01F0004545F0FE41CB
:1004180041F470014FF0000030BD7FEA645C1ABF00
:10042800194610467FEA655C1CBF0B46024650EA37
:10043800013406BF52EA033591EA030F41F4002163
:1004480030BD00BF90F0000F04BF0021704730B5E9
:100458004FF4806404F132044FF000054FF00001BE
:1004680050E700BF90F0000F04BF0021704730B57F
:100478004FF4806404F1320410F0004548BF404254
:100488004FF000013EE700BF42004FEAE2014FEAA9
:1004980031014FEA02701FBF12F07F4393F07F4F84
:1004A80081F06051704732F07F4208BF704793F087
:1004B8007F4F04BF41F40021704730B54FF460749A
:1004C80001F0004521F000411CE700BF50EA01029D
:1004D80008BF704730B54FF000050AE050EA010246
:1004E80008BF704730B511F0004502D5404261EBB6
:1004F80041014FF4806404F132045FEA915C3FF4F7
:10050800D8AE4FF003025FEADC0C18BF03325FEA93
:10051800DC0C18BF033202EBDC02C2F1200300FA44
:1005280003FC20FA02F001FA03FE40EA0E0021FA69
:1005380002F11444BDE600BF70B54FF0FF0C4CF457
:10054800E06C1CEA11541DBF1CEA135594EA0C0F09
:1005580095EA0C0F00F0DEF82C4481EA030621EA44
:100568004C5123EA4C5350EA013518BF52EA03357F
:1005780041F4801143F4801338D0A0FB02CE4FF031
:100588000005E1FB02E506F00042E0FB03E54FF061
:100598000006E1FB03569CF0000F18BF4EF0010E59
:1005A800A4F1FF04B6F5007F64F5407404D25FEA55
:1005B8004E0E6D4146EB060642EAC62141EA555108
:1005C8004FEAC52040EA5E504FEACE2EB4F1FD0C4A
:1005D80088BFBCF5E06F1ED8BEF1004F08BF5FEAC8
:1005E800500E50F1000041EB045170BD06F000467A
:1005F80046EA010140EA020081EA0301B4EB5C0427
:10060800C2BFD4EB0C0541EA045170BD41F480111E
:100618004FF0000E013C00F3AB8014F1360FDEBF43
:10062800002001F0004170BDC4F10004203C35DA1F
:100638000C341BDC04F11404C4F1200500FA05F3A2
:1006480020FA04F001FA05F240EA020001F0004243
:1006580021F0004110EBD37021FA04F642EB0601B9
:100668005EEA430E08BF20EAD37070BDC4F10C04E3
:10067800C4F1200500FA04F320FA05F001FA04F2A7
:1006880040EA020001F0004110EBD37041F1000193
:100698005EEA430E08BF20EAD37070BDC4F120059E
:1006A80000FA05F24EEA020E20FA04F301FA05F206
:1006B80043EA020321FA04F001F0004121FA04F2AE
:1006C80020EA020000EBD3705EEA430E08BF20EA7E
:1006D800D37070BD94F0000F0FD101F000464000B8
:1006E80041EB010111F4801F08BF013CF7D041EA3A
:1006F800060195F0000F18BF704703F0004652003E
:1007080043EB030313F4801F08BF013DF7D043EA0E
:100718000603704794EA0C0F0CEA135518BF95EAC4
:100728000C0F0CD050EA410618BF52EA4306D1D14B
:1007380081EA030101F000414FF0000070BD50EA6A
:10074800410606BF1046194652EA430619D094EAF4
:100758000C0F02D150EA013613D195EA0C0F05D1DE
:1007680052EA03361CBF104619460AD181EA030132
:1007780001F0004141F0FE4141F470014FF00000EA
:1007880070BD41F0FE4141F4780170BD70B54FF085
:10079800FF0C4CF4E06C1CEA11541DBF1CEA135505
:1007A80094EA0C0F95EA0C0F00F0A7F8A4EB0504E7
:1007B80081EA030E52EA03354FEA013100F08880DE
:1007C8004FEA03334FF0805545EA131343EA1263A7
:1007D8004FEA022245EA111545EA10654FEA00265C
:1007E8000EF000419D4208BF964244F1FD0404F515
:1007F800407402D25B084FEA3202B61A65EB030571
:100808005B084FEA32024FF480104FF4002CB6EB2D
:10081800020E75EB030E22BFB61A754640EA0C00AD
:100828005B084FEA3202B6EB020E75EB030E22BFED
:10083800B61A754640EA5C005B084FEA3202B6EB2E
:10084800020E75EB030E22BFB61A754640EA9C00ED
:100858005B084FEA3202B6EB020E75EB030E22BFBD
:10086800B61A754640EADC0055EA060E18D04FEA7B
:10087800051545EA16754FEA06164FEAC30343EA1B
:1008880052734FEAC2025FEA1C1CC0D111F4801FE8
:100898000BD141EA00014FF000004FF0004CB6E7E1
:1008A80011F4801F04BF01430020B4F1FD0C88BF80
:1008B800BCF5E06F3FF6AFAEB5EB030C04BFB6EB8B
:1008C800020C5FEA500C50F1000041EB045170BD7E
:1008D8000EF0004E4EEA113114EB5C04C2BFD4EBAB
:1008E8000C0541EA045170BD41F480114FF0000E2F
:1008F800013C90E645EA060E8DE60CEA135594EAAB
:100908000C0F08BF95EA0C0F3FF43BAF94EA0C0FAD
:100918000AD150EA01347FF434AF95EA0C0F7FF422
:1009280025AF104619462CE795EA0C0F06D152EA76
:1009380003353FF4FDAE1046194622E750EA41065A
:1009480018BF52EA43067FF4C5AE50EA41047FF46B
:100958000DAF52EA43057FF4EBAE12E74FF0FF3CD0
:1009680006E000BF4FF0010C02E000BF4FF0010CA1
:100978004DF804CD4FEA410C7FEA6C5C4FEA430C1A
:1009880018BF7FEA6C5C1BD001B050EA410C0CBF69
:1009980052EA430C91EA030F02BF90EA020F0020CB
:1009A800704710F1000F91EA030F58BF994208BF32
:1009B80090422CBFD8176FEAE37040F001007047EF
:1009C8004FEA410C7FEA6C5C02D150EA013C07D146
:1009D8004FEA430C7FEA6C5CD6D152EA033CD3D091
:1009E8005DF8040B704700BF8446104662468C468B
:1009F8001946634600E000BF01B5FFF7B7FF0028BE
:100A080048BF10F1000F01BD4DF808EDFFF7F4FFE6
:100A18000CBF012000205DF808FB00BF4DF808ED71
:100A2800FFF7EAFF34BF012000205DF808FB00BF94
:100A38004DF808EDFFF7E0FF94BF012000205DF8B6
:100A480008FB00BF4DF808EDFFF7CEFF94BF01206B
:100A580000205DF808FB00BF4DF808EDFFF7C4FF64
:100A680034BF012000205DF808FB00BF4FEA410CAD
:100A78007FEA6C5C02D150EA013C0AD14FEA430C90
:100A88007FEA6C5C02D152EA033C02D14FF00000CD
:100A980070474FF0010070474FEA410212F500120B
:100AA80015D211D56FF47873B3EB625212D94FEAAD
:100AB800C12343F0004343EA505311F0004F23FA97
:100AC80002F018BF404270474FF00000704750EAEC
:100AD800013005D111F0004008BF6FF000407047A9
:100AE8004FF00000704700BF4FEA4102B2F1E04307
:100AF80024BFB3F5001CDCF1FE5C0DD901F0004CFD
:100B08004FEAC0024CEA5070B2F1004F40EB83004C
:100B180008BF20F00100704711F0804F21D113F178
:100B28003872BCBF01F00040704741F480114FEAB1
:100B38005252C2F11802C2F1200C10FA0CF320FA3A
:100B480002F018BF40F001004FEAC1234FEAD32357
:100B580003FA0CFC40EA0C0023FA02F34FEA4303C1
:100B6800CCE77FEA625307D150EA01331EBF4FF04A
:100B7800FE4040F44000704701F0004040F0FE4065
:100B880040F40000704700BF70B50E4B0E4D1B6857
:100B98002A7806464FF47A70B0FBF2F0B3FBF0F017
:100BA80000F0E2FB08B90F2E01D9012070BD044600
:100BB800024631464FF0FF3000F094FB6E6020464D
:100BC80070BD00BF3C07002000000020074A08B5A0
:100BD800136843F010031360032000F071FB00203A
:100BE800FFF7D2FF04F0C2FC002008BD002002403D
:100BF800034A044B11681B780B441360704700BF0D
:100C0800780F002000000020014B1868704700BFD3
:100C1800780F002038B50446FFF7F6FF631C054639
:100C280002D0044B1B781C44FFF7EEFF401BA04288
:100C3800FAD338BD00000020026838B5936803F085
:100C48000303012B02D00023184638BD1168C907D9
:100C5800F9D5916801F00D01012909D0426C42F0E3
:100C680010024264826C42F001028264184638BD68
:100C78009368032143F00203936011600446FFF771
:100C8800C3FF054623689B68DB07DCD5FFF7BCFF7D
:100C9800401B0228F6D9636C43F010036364A36C0D
:100CA80043F00103A3640123CEE700BF70B596B0FB
:100CB8000023009300287FD0436C13F010030446F0
:100CC80016D1456C002D7AD002689168C90067D5A5
:100CD80091688E0064D4616CCD0640F18A80636CA3
:100CE80023F0120343F010036364012016B070BDB3
:100CF800436CDD06F3D40268936813F00403EED165
:100D0800616C21F4817141F00201B2F1A04F61647C
:100D18000CBF67494FF0A0410191916801F00301B0
:100D2800012900F0B0800198816801F003010129D0
:100D380063D060486568816821F440312943816047
:100D4800D4E90251A66BE0692943656A012E18BFF0
:100D58004FF4805341EA4031012D43EA010300F08A
:100D68008A80E16A012902D0206B01430B43916814
:100D780011F00C0F30D0D5684F49206929400B433A
:100D88000128D3606FD0136B23F00F031363002087
:100D9800A064636C23F0030343F001036364A5E7D5
:100DA800636C23F0120343F010036364A36C43F0F5
:100DB8000103A364636C92E7012016B070BD8564DB
:100DC800C0E9135580F8405004F0E8FB22689368A6
:100DD800D80016D52B4678E7D068616BA56920F452
:100DE8008040490020F0020041EA8531D0600B4381
:100DF800C1E7002B7FF473AF7EE70168C9079FD472
:100E080097E72046FFF718FF626C12F0100F0346B1
:100E180022687FF45AAF00287FF457AF606C2749E7
:100E2800274D096820F4885020F0020040F00200A5
:100E38006064906820F040509060A5FB0101890C27
:100E4800906801EB8101490040F08050906000916A
:100E5800009900293FF439AF0099013900910099B0
:100E68000029F9D131E7116B236A21F00F01013B09
:100E78000B4313638BE778B9A16A013943EA41430D
:100E880043F480336DE71168C8073FF559AF0198FF
:100E980000283FF44EAF47E7616C21F0220141F092
:100EA80020016164A16C41F00101A16459E700BF10
:100EB800000100500003005007C0F0FF3C0700206D
:100EC80083DE1B43F0B4024696B092F8403000200F
:100ED800012B009000F0DA801368CC689D6801202F
:100EE8006D0782F8400037D4D1E9005606EB46007A
:100EF800042E4FEA400079D81E6B1F27874026EA48
:100F0800070605FA00F030431863986810F00C0FD4
:100F180050D1092D05EB4506886840F29C801E3E9D
:100F28009F694FF0070C0CFA06FCB04027EA0C0644
:100F380030439861D1E90467D868C0F3C100400024
:100F4800013E07FA00F0AF06032E0FD8DFE816F0CF
:100F5800F300E800DD00D200536C43F02003536433
:100F6800002382F8403016B0F0BC7047186E00F0CD
:100F7800F840874203D1186E20F000401866586E7A
:100F880000F0F840874203D1586E20F000405866C0
:100F9800986E00F0F840874203D1986E20F0004028
:100FA8009866D86E00F0F840874203D1D86E20F0DA
:100FB8000040D866986800F0030001286AD0012034
:100FC800012C00FA05F069D0D3F8B01021EA00002E
:100FD800C3F8B000102D18D0112D52D0122D03D106
:100FE800784989684C0214D50020B9E7092E3DD903
:100FF8000E2E74D83C389E6B1F27874026EA0706BA
:1010080005FA00F0304398637FE76E4989680F025C
:10101800EAD4B3F1A04F0CBF6B494FF0A041019146
:10102800996801F00301012900F09B80019881680B
:1010380001F00301012900F09C80102D00F0A3802D
:10104800112D00F08380122DCED15E498B6843F4B8
:1010580080038B60C8E75F694FF0070C0CFA06FC49
:10106800B04027EA0C063043586163E71E385E6BD0
:101078001F27874026EA070605FA00F03043586321
:1010880043E750498968CE01C3D5ADE7022016B0C1
:10109800F0BC70471868C00791D5A5E7D3F8B060D1
:1010A8008C683043092DC3F8B0000CD905EB450115
:1010B8001B39986907268E4020EA060004FA01F1D8
:1010C8000143996186E7681C00EB400059690726CF
:1010D8008640844021EA0601214359617CE75A3859
:1010E800DE6B1F27874026EA070605FA00F0304323
:1010F800D8630AE7D3F86CC0344E0CEA06063743C7
:1011080047F000473843D86654E7D3F868C02F4EF5
:101118000CEA0606374347F000473843986649E724
:10112800D3F864C0294E0CEA0606374347F0004757
:10113800384358663EE7D3F860C0244E0CEA0606EA
:10114800374347F000473843186633E7B3F1A04FF9
:101158007FF44AAF1B498B6843F080738B60002093
:10116800FEE61968C80708D4019800283FF465AF5F
:101178005DE70168C9077FF560AF536C43F0200352
:1011880053640120ECE6B3F1A04F7FF42DAF0D4975
:101198000F4C8B680F4843F400038B602368A0FB57
:1011A80003139B0C03EB83035B000093009B002B52
:1011B8003FF41AAF009B013B0093009B002BF9D131
:1011C80012E700BF000300500001005000F0FF8349
:1011D8003C07002083DE1B430346F0B4046893F801
:1011E800402035480D68B4F1A04F18BF4FF0A0401B
:1011F800012A36D0A2680126570783F8406009D52E
:101208005A6C42F020025A640120002283F84020E0
:10121800F0BC704782685607F2D42DB3DFF89CC043
:101228004F68DCF808605A6B26F4604647EA423299
:101238003243CCF80820A26802F00302012A2FD01A
:10124800826802F00302012A2ED01C48896882684D
:1012580022F471620D4322F00F02154385600020CD
:10126800D3E70220F0BC704714498A6822F4604230
:101278008A60A26802F00302012A0DD0826802F097
:101288000302012A14D00D498A6822F4716222F0FF
:101298000F028A600020B8E72268D107DFD4EDE7A3
:1012A8002268D407CCD5DAE70268D007D7D4CCE7D0
:1012B8000268D207D3D4E6E70001005000030050CB
:1012C800074AD3684FF6FF010B40000243F0BF63A3
:1012D80000F4E06043F400330343D360704700BF79
:1012E80000ED00E0184BDB68C3F3022330B4C3F110
:1012F8000705042D03F1040428BF0425062C19D979
:10130800033B4FF0FF349C4022EA04044FF0FF32C5
:10131800AA4021EA020101FA03F22243120100283D
:10132800D2B20ADB00F1604000F5614080F800238A
:1013380030BC704700242346E8E7044B00F00F0058
:1013480003441A7630BC704700ED00E0FCEC00E086
:1013580000F01F0101234009024A8B4042F8203067
:10136800704700BF00E100E00138B0F1807F0ED285
:10137800084B10B4084C5860F02084F82300002271
:10138800072110469A6019605DF8044B70470120E8
:10139800704700BF10E000E000ED00E048B370B413
:1013A800D0E90135D0E9031402462B430068566999
:1013B80095690B432343334304680F490F4E2B436E
:1013C800D569014424F47F54A6FB01612B4324F022
:1013D8003004234309090A4C0360890000200123D3
:1013E800C2E90F41906382F8200082F8213070BC76
:1013F80070470120704700BFF8FFFDBFCDCCCCCCB3
:101408000000024070B4D0E90F5204232968046830
:1014180093400B4226680AD016F0040F07D02268C2
:10142800920637D5C26A6B60CAB170BC10470223F6
:1014380093400B4215D016F0020F12D02268920684
:1014480006D42268012122F00A02226080F82110C5
:10145800826A6B60002380F82030002AE5D170BCD6
:101468007047082393400B42F9D03307F7D5236818
:10147800016B23F00E032360012303FA02F2002418
:101488006A60836380F8213080F820400029E6D024
:1014980070BC0847226822F004022260C2E700BF3D
:1014A800D1F800C0BCF1000F00F0C0802DE9F04F6A
:1014B800DFF88CE183B0884600254FF0010909FA6E
:1014C80005F313EA0C046DD0D8F8042022F0100AB2
:1014D800BAF1020F6DD06F00032101FA07F6D0F8B8
:1014E80000B0F643114006EA0B0BB9400AF1FF3A87
:1014F80041EA0B01BAF1010F01607BD9C168D8F844
:1015080008300E40BB403343D700C3604AD5484932
:101518008B6943F001038B618B6925F0030101F1AD
:10152800804103F0010301F58031019305F00303C5
:10153800019E8E689B000F279F40B0F1904F26EACE
:1015480007060DD03B4FB8426CD03B4FB84264D031
:101558003A4FB8420CBF0327052707FA03F31E4387
:101568008E60DEF80030E143D60354BF0B402343BE
:10157800CEF80030DEF80430970354BF0B40234305
:10158800CEF80430DEF80830D60254BF0B402343AF
:10159800CEF80830DEF80C30920254BF0B402343DB
:1015A800CEF80C3001353CFA05F388D103B0BDE81C
:1015B800F08FEF0800EB870705F00706396AB600D9
:1015C8004FF00F0A0AFA06FB21EA0B0AD8F81010A6
:1015D800B14041EA0A0139626F000321D0F800A046
:1015E80001FA07F6F64311400AEA060AB94041EA49
:1015F8000A010160816801EA060AD8F80C10B940AE
:1016080041EA0A018160D0F804A0C2F300112AEA75
:101618000303A9401943416070E7022707FA03F35F
:101628001E439DE709FA03F31E4399E7704700BF7D
:10163800001002400004004800080048000C004860
:10164800000401400AB9816270478161704700BF98
:10165800044A5169014200D1704708B5506103F04E
:1016680049FF08BD00040140002800F0B1812DE9C0
:10167800F0430368D90783B0044648D5C0494A688F
:1016880002F00C02042A00F064814A6802F00C029D
:10169800082A00F05A816368B3F5803F10D0002B08
:1016A80000F09881B3F5A02F00F03F82B44B1A6880
:1016B80022F480321A601A6822F480221A6004E048
:1016C800AF4A136843F480331360AD4DA268EB6AE8
:1016D80023F00F031343EB62FFF796FA4FF4003839
:1016E8000746012605E0FFF78FFAC01B642800F2C1
:1016F8005D8198FAA8F32A6898FAA8F3B3FA83F3F5
:1017080003F01F0306FA03F31342ECD023689F0784
:1017180059D41D072CD5A269002A00F0EF800122B8
:1017280092FAA2F1974B964EB1FA81F10B449B00C5
:1017380015461A60FFF768FA4FF00208074605E0F9
:10174800FFF762FAC01B022800F2308198FAA8F36A
:1017580098FAA8F398FAA8F3726A98FAA8F3B3FA71
:1017680083F303F01F0305FA03F31342E8D0236859
:10177800580772D5824BDA69D10000F15481DA69D1
:1017880042F08052DA61DB6903F080530193019BD8
:101798004FF001087C4D2A68D20540F1F780E368D4
:1017A800012B00F09781002B00F04081052B744B32
:1017B8001A6A00F0C78122F001021A621A6A22F03E
:1017C80004021A628BE16E4A516811F00C0F7ED048
:1017D800516801F00C01082976D02269002A00F02E
:1017E8005281012292FAA2F3B3FA83F303F18453EC
:1017F80003F584139B0016461A60FFF705FA4FF0AD
:10180800020807465E4D05E0FFF7FEF9C01B0228F7
:1018180000F2CC8098FAA8F32A6898FAA8F3B3FAE9
:1018280083F303F01F0306FA03F31342ECD029688D
:10183800F82292FAA2F26369B2FA82F221F0F80170
:1018480093400B432B60236863E7B8F1000F04D083
:101858004B4AD36923F08053D361E36983B3484D7E
:101868006A6802F00C02082A44D0022B4FF08073F9
:1018780000F0708193FAA3F3B3FA83F303F184536E
:1018880003F584139B0000221A60FFF7BDF92C466C
:1018980007464FF00075012605E0FFF7B5F9C01BB4
:1018A800022800F2838095FAA5F3226895FAA5F339
:1018B800B3FA83F303F01F0306FA03F31342ECD1E0
:1018C800002003B0BDE8F0835268D60385D4022215
:1018D80092FAA2F12A49086892FAA2F2B2FA82F2BE
:1018E80002F01F02012101FA02F2024262D02269CB
:1018F8008A425FD0012003B0BDE8F083012595FA44
:10190800A5F1204B1E4EB1FA81F10B449B004FF01C
:1019180002081A60FFF778F9074604E0FFF774F940
:10192800C01B022842D898FAA8F398FAA8F398FAA4
:10193800A8F3726A98FAA8F3B3FA83F303F01F03C3
:1019480005FA03F31342E9D111E74A68D2037FF598
:10195800A2AE4FF4003292FAA2F10949086892FA4D
:10196800A2F2B2FA82F202F01F02012101FA02F297
:1019780002423FF4CCAE6268002A7FF4C8AEB9E7F1
:101988000010024020819010007000402A6842F444
:1019980080722A60FFF738F906462B68DB053FF5A9
:1019A800FEAEFFF731F9801B6428F6D9032003B097
:1019B800BDE8F083924DF821286891FAA1F1626997
:1019C800B1FA81F120F0F8008A4002432A60A0E6CB
:1019D800012070478A4D2B6823F480332B602B68D5
:1019E80023F480232B60EB6AA26823F00F031343D0
:1019F800EB62FFF709F94FF400380746012604E0C7
:101A0800FFF702F9C01B6428D0D898FAA8F32A680F
:101A180098FAA8F3B3FA83F303F01F0306FA03F363
:101A28001342EDD172E64FF00008B3E6744D2B6A0D
:101A380023F001032B622B6A23F004032B62FFF7C8
:101A4800E3F84FF002090746012614E099FAA9F3D2
:101A58006A6A99FAA9F3B3FA83F303F01F0306FA43
:101A680003F313423FF4F1AEFFF7CEF841F28833A7
:101A7800C01B98429AD899FAA9F399FAA9F3002BAE
:101A8800E4D02A6AE5E7012595FAA5F3B3FA83F3CA
:101A980003F1845303F584139B004FF002081A6086
:101AA800FFF7B2F8564E074605E0FFF7ADF8C01B42
:101AB80002283FF67BAF98FAA8F3326898FAA8F3A1
:101AC800B3FA83F303F01F0305FA03F31342ECD1CF
:101AD80023681EE64A4A136A43F001031362FFF7BC
:101AE80093F84FF002090746454E012515E099FA8B
:101AF800A9F3726A99FAA9F3B3FA83F303F01F03FF
:101B080005FA03F313427FF4A0AEFFF77DF841F224
:101B18008833C01B98423FF649AF99FAA9F399FA5E
:101B2800A9F3002BE3D0326AE4E703F18043A3F57D
:101B38003C331A6842F480221A601A6842F48032F0
:101B48001A60C2E542F004021A621A6A42F00102FF
:101B58001A62C4E793FAA3F3B3FA83F303F1845345
:101B680003F584139B0000221A60FFF74DF84FF02D
:101B780000780746012605E0FFF746F8C01B022853
:101B88003FF614AF98FAA8F32A6898FAA8F3B3FABC
:101B980083F303F01F0306FA03F31342ECD1D4E9ED
:101BA80008136A680B4322F4741213436B604FF0F6
:101BB800807393FAA3F3B3FA83F303F1845303F521
:101BC80084139B004FF000741E60FFF71DF80C4E45
:101BD8000746012505E0FFF717F8C01B02283FF666
:101BE800E5AE94FAA4F3326894FAA4F3B3FA83F353
:101BF80003F01F0305FA03F31342ECD060E600BFBD
:101C080000100240154810B4446804F00C03082B77
:101C180003D013485DF8044B70474FF4701393FAE0
:101C2800A3F3B3FA83F304F47012DA400D49C36ADC
:101C3800885C0F2292FAA2F2B2FA82F203F00F0342
:101C4800D3400B441A7CE3034ABF054B064BB3FB56
:101C5800F2F35DF8044B03FB00F0704700100240FC
:101C680000127A00087D000800093D0078B1534A47
:101C7800136803F007038B420BD2136823F00703A2
:101C88000B431360136803F007038B4201D0012054
:101C9800704703682DE9F0419C0706D5484C8568D4
:101CA800626822F0F0022A4362600D46D9070446B2
:101CB8002FD54268012A6DD0022A0CBF4FF000735D
:101CC800022393FAA3F13E49086893FAA3F3B3FAFF
:101CD80083F303F01F03012101FA03F3034228D021
:101CE800374E736823F003031A437260FEF78CFFC4
:101CF80041F28837804605E0FEF786FFA0EB080032
:101D0800B84258D87368626803F00C03B3EB820FCB
:101D1800F2D12A4A136803F00703AB420CD91368BF
:101D280023F007032B431360136803F00703AB4248
:101D380002D00120BDE8F08123685A0706D5204962
:101D4800E0684A6822F4E06202434A601B0718D43C
:101D5800FFF758FF1A4B0146F0225B6892FAA2F28D
:101D6800B2FA82F203F0F003D3401648164AC35C75
:101D7800002021FA03F31360FEF706FF0020BDE8F8
:101D8800F0810F4A2169536823F4605343EAC10381
:101D98005360DDE74FF4003393FAA3F1084909686B
:101DA80093FAA3F3B3FA83F303F01F0302FA03F3DE
:101DB8000B4295D1BDE70320E1E700BF00200240B8
:101DC800001002402C7D00083C070020084B4FF40F
:101DD800E0625B6892FAA2F2B2FA82F203F4E0637C
:101DE800D3400449044ACB5C1068D840704700BF10
:101DF800001002403C7D00083C070020084B4FF4CF
:101E080060525B6892FAA2F2B2FA82F203F460536B
:101E1800D3400449044ACB5C1068D840704700BFDF
:101E2800001002403C7D00083C0700202DE9F043EB
:101E380004460068C50383B03BD5554BDA69D10029
:101E480060D5544D2A68D2054FF0000669D5504D2B
:101E580061682A6A12F440721FD001F440739342F9
:101E68001BD0296A4FF4803321F4407093FAA3F20F
:101E7800494FB2FA82F23A4492004FF0010CC2F88C
:101E880000C093FAA3F3B3FA83F33B449B00002208
:101E98001A602862C80757D461683D4A136A23F458
:101EA80040730B4313621EB1D36923F08053D3618F
:101EB8002068C10706D5364AA168136B23F00303CF
:101EC8000B431363820606D5314AE168136B23F08E
:101ED80010030B431363030606D52D4A2169D36A01
:101EE80023F4F8730B43D36210F4805007D0284AC8
:101EF8006169136B23F480730B431363002003B0F1
:101F0800BDE8F083DA69234D42F08052DA61DB697B
:101F180003F080530193019B2A68D2054FF0010614
:101F280095D42A6842F480722A60FEF76DFE07464F
:101F38002B68DB058BD4FEF767FEC01B6428F7D936
:101F4800032003B0BDE8F0836746FEF75DFE4FF05F
:101F58000209804614E099FAA9F36A6A99FAA9F382
:101F6800B3FA83F303F01F0307FA03F3134293D181
:101F7800FEF74AFE41F28833A0EB08009842DFD80A
:101F880099FAA9F399FAA9F3002BE4D02A6AE5E7AC
:101F9800001002400070004000819010D0E900312C
:101FA8005A68B1F5827F22F0E0025A6013D0826A43
:101FB800B2F5005F07D11A6822F400521A601A6855
:101FC80042F400521A600122002380F85D2080F854
:101FD8005C30032070478268B2F5004F02D0B2F53A
:101FE800806FE4D11A6822F040021A60DFE700BF70
:101FF80070B505460C4616462B68986810F08000A8
:1020080000D170BD621CF8D024B1FEF7FDFD801B25
:102018008442F1D82846BDE87040FFF7BFBF00BF33
:10202800F0B5064683B00C4615461F46316801E0F8
:102038006B1C0DD18868204016D0B4F5C06FF7D15D
:102048000A7BD2B28DF807206B1C9DF80720F1D0CF
:1020580025B1FEF7D9FDC01B8542E7D8304603B04D
:10206800BDE8F040FFF79ABF03B0F0BDF8B543688C
:10207800B3F5827F04460E46174623D03A463146CA
:102088002046FFF7B5FF0546A8B96368B3F5827F18
:1020980001D02846F8BDA368B3F5004F02D0B3F5C8
:1020A800806FF6D13B4632464FF4C0612046FFF7B9
:1020B800B7FF0028EDD0236E032543F020032366E5
:1020C8002846F8BD8368B3F5004F02D0B3F5806F9A
:1020D800D4D12268136823F040031360CEE700BF11
:1020E80070B513460D4616460A464FF4C0510446CD
:1020F800FFF796FF70B9324629462046FFF778FF6A
:1021080040B933462A464FF4C0612046FFF788FF9E
:1021180000B970BD236E43F020032366032070BD11
:102128002DE9F8430446012084F85C0016469946D8
:102138000F46089DFEF768FD94F85D306268DBB2D3
:10214800012B804610D0B2F5827F08D002200122F0
:10215800002384F85D2084F85C30BDE8F883A1682A
:102168000029F3D1042BF1D1002F6CD0002E6AD0B6
:10217800B9F1000F67D094F85D30E1682664042B4C
:102188001CBF052384F85D300023B1F5E06F23669A
:10219800C4E91333A4F84690A4F84490A763A4F8BC
:1021A8003C90A4F83E9023684FD9596821F4805197
:1021B80059601968480603D4196841F0400119604C
:1021C800002A00F0B980E28F92B2012A00F0B480B0
:1021D8004FF00109E38F9BB22BB9B4F846309BB29C
:1021E800002B00F08980B9F1000F0FD0E38F9BB26C
:1021F80063B123689A68910708D537F8022BDA602B
:10220800E38F013B9BB2E3874FF00009B4F84630F7
:102218009BB273B123689A68D2070AD5DB6826F89F
:10222800023BB4F84630013B9BB2A4F846304FF06D
:102238000109681CCED0FEF7E7FCA0EB0800854238
:10224800C8D8032083E7012081E7B4F846100129A4
:10225800596840F28E8021F4805159601968490606
:1022680040F18E80002A6FD0E28F92B2012A6BD0A3
:102278004FF00109E38F9BB223B9B4F846309BB203
:10228800002B39D0B9F1000F12D0E38F9BB27BB18C
:1022980023689A6891070BD5E28F012A5FD937F82E
:1022A800022BDA60E38F023B9BB2E3874FF0000911
:1022B800B4F846309BB2B3B123689A68D20712D5F6
:1022C800B4F84620012A24D9DA6826F8022BB4F893
:1022D8004620023A92B2A4F84620B4F84620012AD1
:1022E80023D94FF001096B1CC4D0FEF78DFCA0EB7D
:1022F80008008542BED8A4E7424629462046FFF793
:10230800EFFE08B120232366206E003018BF01209D
:102318001DE71B7B3370B4F84630013B9BB2013696
:10232800A4F846304FF00109DDE75A6842F48052BC
:102338005A604FF00109D6E737F8022BDA60E38FCD
:10234800013B9BB2E38743E7E28F012A1DD937F8A7
:10235800022BDA60E38F023B9BB2E38788E73A7887
:102368001A73E38F013B9BB20137E3874FF00009F3
:102378009EE741F480515960196848063FF572AFED
:10238800196841F0400119606CE73A781A73E38FD5
:10239800013B9BB20137E3876AE700BF002851D0B1
:1023A800F0B590F85D30002283B0044603F0FF01D9
:1023B8008262002B41D00223216884F85D300B68CB
:1023C800E668226B23F04003B6F5E06F0B602DD969
:1023D800B6F5706F38D1A06A002A3AD04FF0000CD9
:1023E800A268636827691343626A019262693B4382
:1023F8001343D4E90675019A3243266A2B43656B69
:10240800334307F400763F0C07F0040715433343C2
:1024180000223D43034345EA0C05012610460B60A4
:102428004D60226684F85D6003B0F0BD14D00020D2
:10243800A062AAB14FF4805CD2E780F85C1003F088
:1024480035F9B8E7012070470020A062002AC5D1FD
:10245800104602232363C1E7A06A002AEAD1024694
:102468000123104623634FF4805CB9E72DE9F0415E
:102478001E46436890F85C70B3F5827F82B00446CC
:1024880090460D4616D0012F24D0012384F85C30E5
:10249800FEF7BAFB074694F85D00C0B201281DD0CC
:1024A80002200122002384F85D2084F85C3002B009
:1024B800BDE8F0818368002BE5D10423012F80F863
:1024C8005D3007D0134600960A46FFF729FE02B092
:1024D800BDE8F081022002B0BDE8F081002DE0D017
:1024E800B8F1000FDDD0042384F85D3000232366A3
:1024F800A363A4F84680A387E387C4E9133323685A
:10250800E26859682564B2F5E06F8CBF21F4805108
:1025180041F48051A4F844805960A168B1F5004F96
:1025280056D01968490603D4196841F0400119606A
:10253800B2F5E06F2AD8B4F846309BB28BB1236865
:102548009A68D0073AD51B7B05F8013BB4F84630AA
:10255800013B9BB2A4F84630B4F846309BB2002B3E
:10256800EDD13A4631462046FFF780FD08B12023D9
:102578002366206E003018BF012092E736B3731C23
:1025880004D0FEF741FBC01BB0421FD2B4F846305E
:102598009BB2002BE5D023689A68D207EED5DB689A
:1025A80025F8023BB4F84630013B9BB2A4F846300C
:1025B800B4F846309BB2002BEDD1D2E736B1711C8E
:1025C800B9D0FEF721FBC01BB042B4D3032068E7A3
:1025D800196821F480411960A3E700BF036801224C
:1025E800186A02FA01F120EA010010B418621A6AA6
:1025F8000D4C1143A34219620AD00C4A934207D0EA
:1026080002F58062934203D002F58062934203D1BF
:102618005A6C42F400425A641A685DF8044B42F05E
:10262800010200201A607047002C01400040014060
:10263800FFF7D4BF036830B41A6A1C4D012404FAAA
:1026480001F122EA01021A621A6A1A62AB421ED02A
:10265800174A93421BD002F58062934217D002F5C5
:102668008062934213D0196A41F21112114208D1C3
:10267800196A40F24442114203D11A6822F0010259
:102688001A60012380F83D3030BC00207047196A79
:1026980041F211121142E6D1196A40F24442114244
:1026A800E1D15A6C22F400425A64DCE7002C014064
:1026B800004001400368C1B104290DD11A6A22F013
:1026C80010021A621A6A42F010021A621A6842F07C
:1026D80001021A60002070471A6A22F001021A6289
:1026E8001A6A42F001021A62E8E71A6A22F0010245
:1026F8001A621A6A42F001021A62E7E72F4A03686F
:102708009042F0B44D698E680C6837D0B0F1804FB4
:1027180019D0A2F59432904215D002F59E3290421B
:102728003FD002F58062904239D002F58062904233
:1027380035D023F080032B430360C66284620123F3
:102748004361F0BC70474F68CA6823F070033B438D
:1027580023F44073134323F080032B430360184B87
:10276800C6629842846203D003F580639842E6D13A
:102778000B69036301234361F0BC70474F68CA6863
:1027880023F070033B4323F44073134323F0800387
:102798002B430360C66284620B690363EAE7CA6875
:1027A800F1E7CF6823F440723A4322F080022A43CB
:1027B8000260C66284620B690363DBE7002C014098
:1027C80000440140B8B190F83D3010B503F0FF0265
:1027D80004465BB1022384F83D302068211DFFF7D1
:1027E8008DFF012384F83D30002010BD80F83C2087
:1027F80002F0A4FFEEE70120704700BF00284FD089
:10280800F0B590F83D3083B005460C4603F0FF0262
:10281800002B40D02946022351F8040B85F83D309F
:10282800836823F4803323F007038360FFF766FF90
:102838002968236988688E69A769A268D4F800C0E6
:1028480026F4407EE6691B0143EA0623266A0196C0
:10285800E6683343019E2EF0030E42EA072242EA5D
:102868000E020F6A43EA06336669646822F47C4202
:1028780044EA061440EA0C0022F0FC0227F0AA07FA
:10288800886027431343012400208B610F6285F879
:102898003D4003B0F0BD80F83C2002F065FFB9E789
:1028A80001207047F0B4046A8F680E68184D24F050
:1028B80001040462036A4468826922F4803223F0C6
:1028C800020322F07302A84243EA070342EA06021F
:1028D8000BD005F5A055A84207D005F58065A8429C
:1028E80003D005F58065A8420BD1CD6823F0080315
:1028F8002B43D1E9055624F44074354323F00403EF
:102908002C43496844608261F0BC416303627047AC
:10291800002C0140F0B4046A8F680E68194D24F049
:1029280010040462026A4468836923F0807322F009
:10293800200223F4E643A84242EA071243EA0623A8
:1029480017D0114DA84206D0104DA84203D005F566
:102958008065A84206D1D1E9055624F44064354380
:1029680044EA8504496844608361F0BC816302627B
:102978007047CD6822F0800242EA051222F0400238
:10298800E9E700BF002C014000400140004401403D
:10299800F0B4046A8F680E68194D24F480740462D8
:1029A800026A4468C36923F4803322F4007223F076
:1029B8007303A84242EA072243EA060317D0114DDF
:1029C800A84206D0104DA84203D005F58065A8425C
:1029D80006D1D1E9055624F44054354344EA051498
:1029E80049684460C361F0BCC16302627047CD6846
:1029F80022F4006242EA052222F48062E9E700BF7D
:102A0800002C01400040014000440140F0B4046A39
:102A18008F680E68154D24F480540462026A446875
:102A2800C36923F0807322F4005223F4E643A842DA
:102A380042EA073243EA06230BD005F5A055A8421F
:102A480007D005F58065A84203D005F58065A84242
:102A580004D14D6924F4804444EA851449684460EB
:102A6800C361F0BC01640262704700BF002C0140E2
:102A7800F0B4046A8F680E68154D24F4803404623B
:102A8800026A4468436D23F4803322F4003223F051
:102A98007003A84242EA074243EA06030BD005F551
:102AA800A055A84207D005F58065A84203D005F5D2
:102AB8008065A84204D14D6924F4803444EA052491
:102AC800496844604365F0BC81650262704700BF95
:102AD800002C0140F0B4046A8F680E68154D24F488
:102AE80080140462026A4468436D23F0807322F400
:102AF800001223F4E043A84242EA075243EA0623BD
:102B08000BD005F5A055A84207D005F58065A84269
:102B180003D005F58065A84204D14D6924F48024CA
:102B280044EA8524496844604365F0BCC165026293
:102B3800704700BF002C014038B590F83C30012B9D
:102B480000F0AA800D4602230121044680F83C10BB
:102B580080F83D30142A1DD8DFE802F00B1C1C1C3D
:102B68003C1C1C1C551C1C1C6D1C1C1C861C1C1C89
:102B7800230029460068FFF795FE236828699969AC
:102B880041F008019961996921F0040199619A69F4
:102B980002439A610123002084F83D3084F83C0008
:102BA80038BD29460068FFF795FF23682869596DE5
:102BB80041F400615965596D21F4806159655A6D78
:102BC80042EA00225A650020012384F83D3084F847
:102BD8003C00E5E729460068FFF79CFE2368286962
:102BE800996941F400619961996921F48061996159
:102BF8009A6942EA00229A610020012384F83D3054
:102C080084F83C00CCE729460068FFF7C1FE23683A
:102C18002869D96941F00801D961D96921F004010D
:102C2800D961DA690243DA610020012384F83D3072
:102C380084F83C00B4E729460068FFF7E7FE2368FC
:102C48002869D96941F40061D961D96921F48061A1
:102C5800D961DA6942EA0022DA610020012384F8A6
:102C68003D3084F83C009BE729460068FFF700FFE9
:102C780023682869596D41F008015965596D21F09B
:102C8800040159655A6D02435A650020012384F8EE
:102C98003D3084F83C0083E7022038BD90F83C3092
:102CA800012B1BD0026870B40E4D53689468AA4279
:102CB8000FD00E688D6823F0700324F08001334331
:102CC800002429435360916080F83C40204670BC42
:102CD80070474D6823F470032B43EAE70223184634
:102CE800704700BF002C014090F83C30012B38D0D1
:102CF80030B4D1E90253024623F44073D1E9000409
:102D08002B4323F48063234323F40063D1E9045461
:102D1800034323F480532B4323F40053886A8D69BB
:102D2800234323F4404303430F4C106823F47023D8
:102D3800A04243EA054306D00021436430BC08465C
:102D480082F83C1070474D6A23F47003D1E90741BB
:102D580043EA055323F08073234323F000730B43A6
:102D6800EAE70220704700BF002C01400268836830
:102D7800594970B50569466904462B43C069156809
:102D88003343294003430B4313605168E568A36943
:102D9800266A21F440512943516091684F4D21F42E
:102DA800306133430B43AA4293601BD04C4B9A4289
:102DB80008D04C4B9A4205D0B0F5004F00F0858002
:102DC800012070BDB0F5004F00F08280FEF7FEFFD5
:102DD800D4E9002300EB5300B0FBF3F080B2D060DD
:102DE800002070BD404B41491B6B03F00303B0F555
:102DF800004FCB5C16D0082BE2D801A252F823F082
:102E0800D52D0008CD2E0008B32E0008C92D0008C6
:102E1800AD2E0008C92D0008C92D0008C92D0008CD
:102E2800972E0008082B50D8DFE803F0522E254FC4
:102E3800144F4F4F05006368590801F58031B1FB05
:102E4800F3F1C1F3420321F00F010B439BB20020C1
:102E5800D36070BDFEF7D6FED4E900214B0803EB22
:102E68004000B0FBF1F0C0F3420320F00F00034331
:102E78009BB20020ECE761684B0803F5740303F587
:102E88001053B3FBF1F1DCE7FEF7B8FFE4E7626843
:102E98001249530803F50043B3FBF2F39BB2CB602E
:102EA800002070BDFEF7AEFE92E762680B4953083A
:102EB80003F5F40303F59053B3FBF2F39BB2CB6035
:102EC800002070BDFEF79AFF82E700230120BFE7CC
:102ED800FEF77CFFC0E700BFF369FFEF0038014051
:102EE800004400400048004000100240287D0008CF
:102EF800436ADA0710B406D50168846A4A6822F47E
:102F0800003222434A609C0706D50168C46A4A68B1
:102F180022F4803222434A60590706D50168046BBF
:102F28004A6822F4802222434A601A0706D50168BB
:102F3800446B4A6822F4004222434A60DC0606D504
:102F48000168846B8A6822F4805222438A60990659
:102F580006D50168C46B8A6822F4005222438A604D
:102F68005A0609D50168046C4A6822F48012224383
:102F7800B4F5801F4A600BD01B0606D50268816C29
:102F8800536823F400230B4353605DF8044B7047E8
:102F98004A68446C22F4C00222434A60ECE700BF4E
:102FA8002DE9F843089D80460F4616469946D8F8FD
:102FB800004001E06B1C0AD1E06937EA00030CBF4E
:102FC80001200020B042F5D00020BDE8F8833DB1D3
:102FD800FDF71AFEA0EB0900A842E8D9D8F800408E
:102FE800236823F4D0732360A368202223F001030D
:102FF8000021A360032088F8692088F8681088F801
:103008006A20E2E72DE9F0410E4690F86910202980
:1030180084B034D1002E36D00392A2B31F4690F864
:103028006830012B04462AD00023C36601212123DE
:1030380080F8681080F86930FDF7E6FD039AA4F877
:1030480050208046A4F85220B4F85250ADB24346FE
:103058000022802120462DB3B4F852500097013D3C
:10306800ADB2A4F85250FFF79BFFC8B9A368226815
:10307800B3F5805F0BD0337813850136E4E702207F
:1030880004B0BDE8F081012004B0BDE8F0812369F7
:10309800002BF0D136F8023BC3F308031385D3E7BE
:1030A8000320EDE700972A464021FFF779FF002823
:1030B800F6D1202384F8680084F86930E0E700BF7F
:1030C80070B50446002582B0C566FDF79DFD2368EE
:1030D8001A68120706460CD41B685B0718D420230D
:1030E800002084F8693084F8680084F86A3002B0F7
:1030F80070BD6FF07E4300932A4603464FF40011DB
:103108002046FFF74DFF78B923681B685B07E6D5B3
:103118006FF07E420092334600224FF48001204631
:10312800FFF73EFF0028DAD0032002B070BD00BFD1
:1031380090B390F8693010B503F0FF02044603B36A
:103148002268242384F86930136823F0010313608C
:103158002046FFF70BFE012818D0636AC3B923681D
:103168005A6822F490425A609A6822F02A029A60B9
:103178001A6842F0010220461A60BDE81040FFF7C5
:103188009FBF80F8682002F087FBD9E7012010BDB7
:103198002046FFF7ADFEE2E701207047D0ED145A54
:1031A800D0ED0A4A90ED076AD0ED0B6A90ED087AE7
:1031B800D0ED0C2A90ED093AB0EE002AC2EE257A3D
:1031C80034EEA45A76EE065A67EEA66A27EE877A98
:1031D80027EEA44A25EE275A67EE864A65EEA75AD7
:1031E800F0EE663AB0EE476AE7EE843AD7EE846AC4
:1031F800A7EEA46A97EEA47A27EEC55A67EEE55AB9
:10320800A2EE825AE3EE025A36EE036A73EEA24A3F
:1032180076EEA26A37EE037AC4EE863A85EE064A5F
:10322800C6EE864A85EE865AC7EE066AC0ED0D7A66
:10323800C0ED013A80ED024AC0ED034A80ED055A1F
:10324800C0ED066A704700BF90ED0F6AD0ED027AB4
:1032580090ED007A90ED013A90ED104AD0ED033AE6
:10326800D0ED126AD0ED054AD0ED135A90ED065A0A
:1032780080ED0E7A66EE277A80ED0F7AE7EE037A14
:1032880080ED106AE3EE847AC0ED136AE4EEE67A24
:10329800E5EE657AC0ED117AC0ED127A704700BF8D
:1032A80090ED007A90ED014A90ED0A6AD0ED067A29
:1032B800D0ED054A90ED075AD0ED0B5AD0ED086ACB
:1032C80037EE447A66EE277A80ED027AE7EE247AC2
:1032D800E5EE257AF4EEE67AF1EE10FAC0ED0C7A16
:1032E8000BDCD0ED096AF4EEE67AF1EE10FA04D4BC
:1032F800F0EE676AC0ED0D7A01E0C0ED0D6AD0ED21
:10330800035A90ED045AD0ED0F4A80ED037A77EE18
:10331800655A77EEE67AC5EE856AA7EEE47AC0EDDF
:103328000E7AA5EE076AC0ED0B6A80ED0A6A70474F
:103338002DE9D04304468069FDF7A6F81AA3D3E91E
:103348000023FDF7F9F8FDF7CFFBD4ED027A07EE7D
:10335800100A67EE277A17EE900AFDF795F8002213
:103368004FF0804380468946FCF730FF02460B4603
:1033780006460F4640464946FDF708FAFDF7B4FBF6
:1033880000224FF08043206049464046FCF71CFF6E
:1033980032463B46FDF7FAF9FDF7A6FB6060BDE84B
:1033A800D08300BFAFF30080182D4454FB2119408F
:1033B800D0B52DED048B90ED058AD0ED009A90EDF7
:1033C800039AD0ED018AF0EE487AE9EE897A04464C
:1033D80018EE900AC4ED047AFDF756F802460B463B
:1033E80000201749FCF7F0FE064619EE900A0F4632
:1033F800FDF74AF802460B4630463946FDF79CF879
:10340800064619EE100A0F46FDF73EF802460B462F
:1034180030463946FDF790F868EEC87A064617EE4A
:10342800900A0F46FDF730F802460B4630463946FB
:10343800FCF7CCFEFDF758FBBDEC048B6061D0BDFA
:103448000000F03F0000000010B581890446008CA0
:1034580007EE900A0123F8EE677A4A1E03FA02F291
:103468008B4017EE900AC4E90423FDF70DF80022FB
:103478000D4BFDF761F802460B4600200B49FDF79E
:1034880085F902460B46FCF7A1FE05A3D3E9002304
:10349800FDF752F8FDF728FB606210BDAFF300801E
:1034A800182D4454FB210940000010400000F03F53
:1034B8000168C3690269CB1A934243602ADC52420D
:1034C800934202DA42691344436007EE903A90ED62
:1034D800095AD0ED025A8269D0ED0B6AC161B8EE83
:1034E800E77A134427EE057A07EE903A87EE256AC5
:1034F8008361F8EEE77A36EE667A67EE857A80EDD4
:103508000B6AC0ED0A7AC7EE257AC0ED0C6AC0EDE9
:103518000D7A704742699B1A4360D6E770B4D0E9C8
:1035280002460134846009B90136C66006EB860597
:10353800A41B02F00F0646EA01118618AD000A32F4
:103548003176023504EB840405EB440440F822305C
:103558004FF4FF75B5FBF4F4046070BC704700BF0E
:10356800D0F8683230B40C09092C01F00F0103F1CE
:103578000102C0F8682200EB03058CBF57343034D1
:103588000244092903F102038CBF5731303185F811
:103598006840C0F8683282F8681030BC704700BFD5
:1035A80038B50C46090EFFF7DBFFC4F30741FFF7F8
:1035B800D7FFC4F30721FFF7D3FFE1B2BDE83840D6
:1035C800FFF7CEBF2DE9F84F504D2B69002B53D094
:1035D8006C69002C52D1D5F86822D5F80890A91842
:1035E80054200132C5F8682281F86800B9F1000F4B
:1035F80020D00127A84603E00134A14518D02B6943
:1036080007FA04F63340E340F6D005EB040A4046D7
:103618009AF81810FFF7A4FF9AF818301B09082B1E
:1036280046D8DFE803F031555C4A6B6455554A00CB
:10363800D5F86822D5E90043A818591C5126B1FBD2
:10364800F4F304FB1313541C6B6080F86860C5F82E
:1036580068428BB92C4402325A23C5F8682284F890
:1036680068304FF6FF732A492A4892B2FFF7CAFC1E
:103678000023C5F868326B61BDE8F88F6B68002BD2
:10368800FAD1D5F86822ECE705EB840BDBF8283093
:103698001968FFF785FF9AF8181001F00F0141F03B
:1036A8009001FFF75DFFDBF828305968FFF778FFD6
:1036B8002B6923EA06062E619EE705EB84039B6AC5
:1036C8001978FFF76DFF2B6923EA06062E6193E749
:1036D80005EB84039B6A1968FFF762FFE8E705EBCF
:1036E80084039B6A93F90010FFF75AFFE0E705EBA4
:1036F80084039B6A1988FFF753FFD9E705EB840316
:103708009B6AB3F90010FFF74BFFD1E77C0F00204D
:10371800E40F00205814002030B597B0002401238E
:1037280002254FF4A021CDE90B4310934FF48032CA
:103738004FF4E0130CA80D91CDE913521593CDE980
:103748000E44CDE9114401940694CDE90244CDE933
:103758000444CDE90744CDE90944FDF785FF29462E
:103768000F224FF4806301A80192049302950394F9
:103778000594FEF77BFA4FF484524FF4807306A841
:103788000B9406920A93FEF751FB17B030BD00BFA9
:1037980038B50D4C0D4D20462B4600220121FFF770
:1037A800BDFE012211462046094BFFF7B7FE2B1D2F
:1037B800022220460121FFF7B1FE00230122C4E9BD
:1037C8000023636138BD00BF7C0F0020C8070020BC
:1037D800180000202DE9F04F8D4C8E4F626EE2628A
:1037E8002DED028B4FF48062102581B0236EA4F872
:1037F8004420258604F124009847636EA4F8745089
:1038080041F28832A4F88820236704F16800D4F8CC
:10381800A430814DDFED818A9FED818ADFF82CB2DB
:10382800DFF82CA2DFF82C92DFF82C829847626E22
:10383800C4F8B0204FF08042D4F8C830C4F8C02093
:1038480004F1A8009847626ED4F8EC30C4F8D4208C
:10385800C4F8E45004F1CC009847626EA260714A43
:10386800236AA26120469847626EC4F8F8206E4A1F
:10387800C4F80821D4F8103104F1F0009847636EB9
:10388800C4F82C51C4F81C3104F58A70D4F83431CA
:103898009847626EC4F840214FF08242C4F8502124
:1038A800D4F8583104F59C709847636EC4F8745185
:1038B800C4F8643104F5AE70D4F87C319847636E6F
:1038C800C4F89851C4F8883104F5C070D4F8A03110
:1038D8009847564BC4F8C03155485649564A574B35
:1038E800C4F8BC5100264FF07E55C4F8C401C4F892
:1038F800C811C4F8B8215249524AC4F8E0315248B4
:10390800636EC4F80022C4F81012C4F80C02C4F89C
:10391800B431C4F8FC31C4F8843204F50D70D4F81D
:103928008C32C4F80462C4F80862C4F82862C4F887
:103938005C62C4F86072C4F86452C4F85852C4EDAA
:10394800948A84ED958A9847636EC4F8E03204F54A
:103958002470D4F8E832C4F8B862C4F8BC62C4F879
:10396800C052C4F8B452C4F8ACB2C4F8B0A2984774
:10397800636EC4F83C3304F53B70D4F84433C4F8A0
:103988001463C4F81873C4F81C53C4F81053C4F86B
:103998000893C4F80C839847636EC4F8983304F509
:1039A8005270D4F8A033C4F87063C4F87473C4F8C0
:1039B8007853C4EDD98A84EDDA8AC4F86C539847F1
:1039C800636EC4F8F43304F56970D4F8FC33C4F8B2
:1039D800CC63C4F8D063C4F8D453C4F8C0B3C4F8F3
:1039E800C4A3C4F8C853984704F58060626ED4F83D
:1039F80058348662C7620563C0F81C90C0F82080FE
:103A08004562026501B0BDEC028BBDE8F04F184776
:103A1800080000202472023D00002041BFFE5539F5
:103A28007680A53C0000A04000002040AE47613EE3
:103A380000004844000048C4333353400000A0410C
:103A48000000FAC30AD7A33C0000FA437118EC3609
:103A580012D8753B7118EC3712D8F53B10B5184CD5
:103A680000224FF480614FF09040FDF7EBFD04F128
:103A780008014FF47A7301221248FEF7F7FC124B43
:103A8800D3ED037AF8EE677A01224FF480614FF0A4
:103A98009040C4ED037AFDF7D5FD0C4BD4ED037AC5
:103AA80093ED006ADFED0A6A9FED0A7A77EEC67A2F
:103AB80067EEA67A67EE877AC4ED047A10BD00BF78
:103AC800C8070020A813002000300140640400202B
:103AD8000000B44300008039D0B5374C2DED028B7F
:103AE80094ED058A18EE100AFCF7CEFC2EA3D3E954
:103AF800002306460F46FCF7A5FF70B12F4BDFEDFC
:103B0800307A6361F5EEC07AF1EE10FAC4ED067A08
:103B180043DA3BD4BDEC028BD0BD3046394624A3F2
:103B2800D3E90023FCF784FF20B1264BDFED267A8A
:103B38006361E7E7B2EE087AC8EE077ADFED236A39
:103B48009FED237A67EEA67AF4EEC77AF1EE10FAC3
:103B58000FDB84ED067A3C231E490022BDEC028B64
:103B68004B634FF090404FF40061BDE8D040FDF743
:103B780069BD9FED197AF4EEC77AF1EE10FAC1D853
:103B880084ED067A3C2313490122E7E7F1EE677AD0
:103B9800FCEEE77A17EE903AF5E7FCEEE77A17EED7
:103BA800903AD9E7AFF300803D0AD7A3703D14409F
:103BB8003D0AD7A3703D14C0C807002085EBA1407B
:103BC800E1FA264285EBA1C0E1FA26C20000C6420E
:103BD80000007042002C0140000070C2000000008C
:103BE80038B5354D354CEA69D4F88832C4F83422F2
:103BF80004F50D70984794EDCC7AD4EDB57A77EE4C
:103C0800677A17EE900AFCF73FFC25A3D3E9002357
:103C1800FCF792FCFCF768FFD4ED9E7A286207EE69
:103C2800100A77EEC77AD4F8E432C5ED097AC4ED04
:103C3800A47A04F524709847D4F82421D4F84033A2
:103C4800C4F8EC2204F53B7098476A6AD4F824312A
:103C5800C4F8EC21C4F8F03104F5F670D4F8303229
:103C68009847D4F8EC01FCF70FFC0FA3D3E9002325
:103C7800FCF762FC0EA3D3E90023FCF787FDFCF7F1
:103C880033FFD4ED887AA86207EE100A77EE877AB8
:103C9800C5ED057ABDE83840FFF71EBFAFF30080D9
:103CA8009A9999999999D93F3D0AD7A3703D14409B
:103CB80052B81E85EB098C40C80700200800002078
:103CC80038B54FF080433E4D5B6A3E4CEA6D07EED7
:103CD800903A2846F8EEE77A2DED028BC4ED0B7A80
:103CE80040F8243F9047DFED388AD5ED137A27EE68
:103CF800A87AC4ED0C7A17EE100AFCF7C5FB2CA3C2
:103D0800D3E90023FCF742FDFCF7EEFE2F4BAA6D2A
:103D18005B6A60635B4207EE903A2846F8EEE77A02
:103D2800296D40F8683FE263D5F8A030A163C4ED7F
:103D3800107A984795ED248A68EE287A84ED118ADE
:103D480017EE900AFCF7A0FB19A3D3E90023FCF7B0
:103D58001DFDFCF7C9FE78EE087AD5F89420D5F851
:103D68009C30A064E26417EE900A2365FCF78CFB94
:103D780011A3D3E90023FCF7DFFBFCF7B5FE05F53B
:103D88008C6507EE100A95ED006AD4ED167ADFED22
:103D9800106A6065D6EE477ABDEC028B87EEA67A8C
:103DA800C4ED017A84ED177A38BD00BFAFF3008007
:103DB800182D4454FB211940FCA9F1D24D62503F03
:103DC80008000020C80700200000B4430004004099
:103DD8000044134638B51C4D1C4C2A69E369E2605F
:103DE800204698471A4AD4F8E8301268C4F8D82010
:103DF80004F1CC009847174BD4F8DC201968164B0F
:103E0800C4F8B4101A6004F1A800D4F8C430984774
:103E1800124BA96BD4F8B8201A60C4F86811D4F80A
:103E2800783104F5AE709847EB6CD4F86C21C4F87F
:103E38008C312A66D4F89C3104F5C0709847D4F8C0
:103E480090316B6638BD00BFC8070020080000200D
:103E5800541300201415002050130020EC110020EA
:103E68002DE9F04F2DED028BDFF83CA14B4CDAF831
:103E7800640089B0FCF708FBD4E91A6732463B4670
:103E880080468946FCF758FB02460B46D4E91C01DC
:103E9800FCF79CF90AF58E650AF58F63D3E90023D0
:103EA800C4E91C01D5E90001FCF770FC01F10043ED
:103EB800324619463B46FCF73FFB42464B46FCF769
:103EC8003BFB32463B46FCF781F90223C4E91A0161
:103ED8001A4604F178010AF5906001F0B7FD022353
:103EE8001A4604F198010AF5946001F0AFFD022327
:103EF8001D461A4604F1B8010AF5986001F0A6FDBE
:103F08002B4604F1D8020AF59C610AF59060CDE9C8
:103F1800005501F049FD2B46CDE9005504F1F802A2
:103F280004F1780104F1D80001F03EFD2B46CDE9FB
:103F3800005504F58C720AF5A0610AF5946001F049
:103F480033FD2B46CDE9005504F59C7204F1980128
:103F580004F58C7001F028FD114B124F0020002150
:103F680000220026C4E95623C4E95801C4E95A01CD
:103F7800C4E95C6704F5BC76A6F1600804F1F805AD
:103F880004F5B077F5E80201FCF720F94545E6E8C5
:103F980002010BD0F7E80223F4E700BFC8070020AE
:103FA8000000F03F00004940080000209C4A9D4F57
:103FB800022602F14005A2F1E001A2F120003346F9
:103FC800CDE9006601F0F0FCA5F120023346A2F12C
:103FD8004001CDE90066944801F0E6FCCDE90066B1
:103FE80033462A46A5F59071A5F1200001F0DCFCC6
:103FF80005F12006B046F5E80201F7E80223FCF7D0
:10400800E5F84545E6E80201F5D194ED7E7B8DEDB6
:10401800027B94ED847B53EC172B8DED047B94EDA0
:10402800807BDDE902018DED067BD4E982ABFCF7EC
:1040380083FADDE9062306460F4650465946FCF743
:104048007BFA02460B4630463946FCF7BDF84FF07E
:1040580000084FF0000906460F4642464B46C4E9A1
:104068008667FCF7D1FC002800F0AE80C4E9888997
:10407800C4E98E89C4E98C89C4E98A896B4A6C4D84
:104088000226A2F1A8003346A2F12001CDE900667C
:1040980001F08AFCD4E91C89206BFCF7F5F942464B
:1040A8004B46FCF791F894ED1A7BCDE90401A06B1F
:1040B8008DED027BFCF7E8F9DDE90223FCF784F8D3
:1040C800D4E9902382468B46DDE90401FCF734FAF3
:1040D80042464B46FCF77AF8D4E994238046894651
:1040E80050465946FCF728FA02460B4640464946D0
:1040F800FCF76CF8D4E99223C4E99801DDE90401DE
:10410800FCF71AFADDE90223FCF760F8D4E99623F4
:104118008046894650465946FCF70EFA02460B4639
:1041280040464946FCF752F8424A0196C4E99A01CA
:1041380000963346A2F13000A5F18001164601F041
:1041480033FC05F1200806F12007F5E80201F6E83E
:104158000223FCF739F84545E7E80201F5D136496D
:10416800364A0223CDE9003301F58C7001F01CFCBE
:10417800D4E99801D4E99A67C4E91C01C4E91A672B
:10418800FCF7B2FC3946C4F8B0023046FCF7ACFC88
:10419800D4EDAF7AC4F8B40208EE100A78EE677A64
:1041A80017EE900AFCF770F91BA3D3E90023FCF77C
:1041B800EDFAFCF799FC84EDAF8AC4F8B80209B0AF
:1041C800BDEC028BBDE8F08F32463B46DDE90401C9
:1041D800FCF7DCFA32463B46C4E98801DDE9020116
:1041E800FCF7D4FA0BF10049C4E98E0132463B468C
:1041F80049465046FCF7CAFADDE90623904603F122
:104208000049C4E98C0132463B4640464946FCF722
:10421800BDFAC4E98A0131E7FCA9F1D24D62703FC9
:104228006009002028050020C8040020080A002092
:1042380048050020380A002040090020E804002032
:104248002DE9F04FDFF854B28B4A8C498C4BDBF8E0
:104258004800DFF84CA29BED087B8DB08DED047B08
:104268009BED0A7B8DED067B9BED007B8DED027B44
:1042780092ED007B8DED087B9DED047B0BF108042E
:1042880084ED027B9DED067B84ED047B9DED027B36
:10429800D1E9006784ED007B9DED087BCBE90C67D5
:1042A8008BED0E7BD3E90089FCF7EEF841EC100B9F
:1042B80001F09EFC404649466DA3D3E900238DEDED
:1042C8000A0BFCF739F9DDE90A23FCF735F9324620
:1042D8003B46CBE91001DDE90201FCF72DF9DDE9E8
:1042E800082306460F46DDE90401FCF725F90246D6
:1042F8000B4630463946FBF769FF5DA3D3E9002337
:1043080006460F46DDE90601FCF716F942464B461C
:10431800FCF712F9DDE90A23FCF70EF902460B4611
:1043280030463946FBF752FF06460F46DAF8480191
:10433800CBE91467FCF7A8F832463B46FBF744FF85
:104348000BF1300503231F460126C4E914011A4660
:1043580028460BF1600101F079FB0BF19008294622
:104368000AF5C1603B460BF17802CDE9007601F011
:104378001BFBCDE9007633464246A8F118010BF144
:10438800600001F011FBD8E900670BF1980AD146EB
:104398000BF17805F5E8020132463B46FCF7F6F9E1
:1043A8004545E9E80201F5D1364B374DD3E90067B9
:1043B800DAE9002330463946FCF7BEF8D4E9002391
:1043C800FBF704FFDAE90223C4E900013046394665
:1043D800FCF7B2F8D4E90223FBF7F8FEDAE9042384
:1043E800C4E9020130463946FCF7A6F8D4E90423AB
:1043F800FBF7ECFE254A03260127C4E904013346EE
:10440800A2F15001A2F118000196009701F0CCFA30
:104418001F4A3346CDE90066A2F14800294601F05B
:10442800C3FA1C4BD3E90067A3F1480805F1480912
:10443800F8E80223D5E90001FBF7C6FE32463B4601
:10444800FCF7A4F9E5E802014D45F1D1D4E90023D0
:10445800D4E90201CBE90023D4E904230E4CC4E9D2
:104468000001C4E902230DB0BDE8F08FAFF300806E
:104478009A99999999992340A013002050140020E3
:1044880090120020F00C002010060020480D00209B
:10449800900D0020D80D0020B80C0020980C0020AA
:1044A80008000020000000002DE9F04F0F4D05F531
:1044B800C363D3ED007A2DED048BB7EE008AF4EEDA
:1044C800487AF1EE10FA8DB012D0F5EE407AF1EE9E
:1044D80010FA04D00DB0BDEC048BBDE8F08F0DB020
:1044E800BDEC048BBDE8F04FFFF774B9C807002096
:1044F800FFF7B4FAFFF7E4FB4FF0A0428021D84B56
:1045080011631B88D74CD849D84ED94A07EE903A40
:1045180004F2644393ED007AD64BF8EE677A4020B4
:1045280077EEC77A05F21C67F1EE677AC6ED007A76
:104538000863128807EE902A04F58D6292ED007ADE
:10454800F8EE677A77EEC77AF1EE677AC3ED007A0C
:10455800FFF740FCFFF784FCD7ED007AF5EE407AD0
:10456800F1EE10FA00F08684DFEDC37A95ED0C6A5F
:10457800D5ED156A86EE277A05F5C56304F5CA6296
:104588000693009204F25466D3ED007A77EEA67A89
:1045980077EE877AC5ED007AD6ED005A009BB74FC3
:1045A800D3ED006ADFF8FCA2DFF8FCB225EEA57AAD
:1045B80036EEA66AA6EEA67A66EE256AA7EEE77A32
:1045C800C7EE267A17EE900AFBF75EFF41EC100B58
:1045D80001F0CEFB38688DED020BFBF755FF9DED22
:1045E800020B02460B4651EC100BFBF7EDFDFCF7F6
:1045F8007BFA9FEDA37ACAF8000007EE900A67EEEF
:10460800877A17EE900AFBF73FFF93A3D3E90023BD
:10461800FCF7BCF8FCF768FADAED037AD4ED196A0E
:1046280095F93C2607EE100A77EE677A534687EE2F
:10463800A67AD86043F8040F08935346642ADCBF6F
:10464800013285F83C268F4817EE101A43F8081FE8
:1046580007936B68D8BFC4F82831C4F82031D4F860
:104668003031984797ED007ADAED007A009BD6ED65
:10467800008A93ED008A77EE277A17EE900AFBF707
:1046880003FF41EC100B41EC190B01F011FBD5EDC8
:10469800017A68EE277A53EC102B67EEA87ACDE9F9
:1046A800022317EE900AFBF7EFFEDDE90223FBF782
:1046B80043FFB0EE490AF0EE690ACDE9020101F0C4
:1046C80097FA68EEA87A53EC102BE8EE087ACDE951
:1046D800042317EE900A38EE088AFBF7D5FE68EE39
:1046E800287A804617EE900A8946FBF7CDFEDDE969
:1046F8000423FBF721FF02460B4640464946FBF7D9
:1047080063FD41EC100B01F00FFCDDE9020153ECF5
:10471800102BFCF73BF8FCF7E7F997ED007ADAED98
:10472800007ACBF8000077EE277A17EE900AFBF7AD
:10473800ABFE41EC100B41EC190B01F0B9FA53EC4C
:10474800102BCDE90223009BD4ED497A93ED008A22
:10475800D6ED008A68EE277A67EEA87A17EE900AF7
:10476800FBF792FEDDE90223FBF7E6FEB0EE490A0D
:10477800F0EE690ACDE9020101F03AFA68EEA87A8A
:1047880053EC102BE8EE087ACDE9042317EE900AD3
:1047980038EE088AFBF778FE68EE287A804617EE2E
:1047A800900A8946FBF770FEDDE90423FBF7C4FE97
:1047B80002460B4640464946FBF706FD41EC100B06
:1047C80001F0B2FBDDE9020153EC102BFBF7DEFF31
:1047D800FCF78AF995F93C364BF8040F642BD8BFDF
:1047E800C4F84C01C4F84401D4F854312648984719
:1047F800264A274BD2ED007A93ED007AF4EEC77A79
:10480800F1EE10FA52DC93ED017AF4EEC77AF1EE8C
:1048180010FA02D51F4B00221A601F4A1F4BD2ED17
:10482800007A93ED007AF4EEC77AF1EE10FA40F3CD
:1048380006831B4B4FF07E521A60D4F86C36042B5B
:1048480000F28283DFE813F0890218026401540041
:10485800370000BFAFF30080182D4454FB210940F6
:10486800A01200200800002000010050541300206E
:10487800441200201415002000441346600600204E
:10488800000034431C01002040010020EC110020EE
:1048980064060020100E0020501300206C06002033
:1048A800140E0020F40D0020080E0020DC4B4FF001
:1048B8007E521A60B1E7DB4BDB491A46F7EE007A05
:1048C80042F80C1992ED007AB4EE677AF1EE10FA1C
:1048D80000F05583A3F10408079A92ED007AB5EE2B
:1048E800407AF1EE10FA40F06083DFEDD07A3DE0D7
:1048F8009FEDCF7ADBED006ACE4A089BD2ED007AB5
:10490800D4ED195A93ED006ACB49C64B81ED007A74
:1049180086EE875A0799A3F10408F3EE046AE5EED8
:10492800657AB4EEE66AF1EE10FAC2ED007A91ED1E
:10493800007AC3ED007A44BF0422C4F86C26B5EEB1
:10494800407AF1EE10FA02D0BC4A82ED007A9FED6F
:10495800BC7AF4EEC77AF1EE10FA40F37C82B54ADD
:10496800DFEDB87A83ED007A82ED007ADFF8F49211
:1049780097ED007A009BD6ED008A93ED008ADFF868
:10498800E8A2CB46EBEC017A77EE877AB7EE009A8D
:1049980017EE900AFBF778FD41EC100B01F028F9AF
:1049A80068EEA87A53EC102BE8EE087ACDE90023DC
:1049B80017EE900A38EE088AFBF766FD68EE287A4B
:1049C800064617EE900A0F46FBF75EFDDDE9002369
:1049D800FBF7B2FD02460B4630463946FBF7F4FBBF
:1049E80041EC100B01F0A0FA51EC100BFCF77CF82D
:1049F800069BD5ED156A93ED007A9FED936A934B6C
:104A0800CBF8000037EE267A07EE900A77EEC77AE1
:104A1800F0EE086AC3ED007A67EE867AD8F80000EF
:104A28008B4E67EEA67AC9ED027AFBF72DFD78A3C7
:104A3800D3E90023FBF780FD41EC100B01F038F9B6
:104A4800002251EC100B834BFBF776FDFCF74CF87A
:104A5800D4F80C31C9F80C00C4F8FC00AAF5B5600C
:104A680098472A6BCAF80C20D4F8B43650469847B1
:104A7800794BDFED7A7A93ED007A67EE277A17EEB5
:104A8800900AFBF701FD64A3D3E90023FBF77EFE40
:104A9800FCF72AF8D4F800212B6BC4F8A421306065
:104AA800C4F8A831AAF2F440D4F8E8319847D4F809
:104AB800D831EB61FFF794F8D4ED198AD8ED007A74
:104AC80078EEA77A87EEA88A38EE098A18EE100AD7
:104AD800FBF7DAFC41EC100B01F002F851EC100B7B
:104AE800FCF702F807EE900A37EEC88AB6EE007AAD
:104AF800B4EEC78AF1EE10FAC8BF77EEC97A68EE4D
:104B0800A78AC8ED008A0DB0BDEC048BBDE8F08F14
:104B1800534A9BED007ADFF854A104921346B3EC94
:104B2800019ADAED007A93ED008ADFF84481DFF824
:104B380044B1C7EE088A77EEC97AB1EE488A77EEB3
:104B4800A87A17EE900AFBF79FFC049ADBED006A3F
:104B580092ED026AD8ED007A88EE067ACDE9020174
:104B680077EEE67A67EE277A17EE900AFBF78CFC69
:104B780041EC100B01F058F979EE687A53EC102BE0
:104B880017EE900ACDE90A23FBF77EFCDDE90A233C
:104B9800CDE90401DDE90201FBF7CEFC02460B4634
:104BA800DDE90401FBF712FBFBF79EFF98ED027AA3
:104BB800079AB5EEC07A4346F1EE10FA07EE900A6E
:104BC80043F8040F92ED007A7FF7B9AEF2EE0E6A61
:104BD800B4EEE67AF1EE10FA7FF5B1AE089A92EDEE
:104BE800006AF3EE0E6AB4EEE66AF1EE10FA7FF7A9
:104BF800A6AE104AD8F8001010600322CAF80000C8
:104C0800CBF80010C4F86C2699E600BFAFF300801B
:104C1800F4433A762F1BE43F182D4454FB210940F6
:104C2800100E00201C0E002000002041C2B8323EA9
:104C38004260E53BC81400209C060020200E00209E
:104C48000000A042C2B8B23F0000FA431C15002081
:104C58009C12002000006940101500200000344319
:104C680090060020240E0020A00600204C130020EF
:104C7800180E00209C130020D34A94ED527ADFF8D6
:104C880068A304921346B3EC019ADAED007A93ED27
:104C9800008ADFF85883DFF84CB3C7EE088A77EE4E
:104CA800C97AB1EE488A77EEA87A17EE900AFBF730
:104CB800EBFB049ADBED006A92ED026AD8ED007A0C
:104CC80088EE067ACDE9020177EEE67A67EE277A72
:104CD80017EE900AFBF7D8FB41EC100B01F0A4F893
:104CE80079EE687A53EC102B17EE900ACDE9082379
:104CF800FBF7CAFBDDE90823CDE90401DDE9020180
:104D0800FBF71AFC0B460246DDE90401FBF75EFAE5
:104D1800FBF7EAFE18ED027A4346B5EE407AF1EE6B
:104D280010FA07EE900A43F8040F40F0848018ED5B
:104D3800017AB5EE407AF1EE10FA7CD1A34AD8F8A0
:104D4800001010600222C4F86C26079ACAF8000006
:104D5800CBF8001092ED007AF1E59D4A94ED527A75
:104D6800DFF884A204921346B3EC019ADAED007AD4
:104D780093ED008ADFF87482DFF868B2C7EE088A1C
:104D880077EEC97AB1EE488A77EEA87A17EE900ADC
:104D9800FBF77AFB049ADBED006A92ED026AD8ED24
:104DA800007A88EE067ACDE9020177EEE67A67EEB8
:104DB800277A17EE900AFBF767FB41EC100B01F01E
:104DC80033F879EE687A53EC102B17EE900ACDE998
:104DD8000823FBF759FBDDE90823CDE90401DDE9E8
:104DE8000201FBF7A9FB0B460246DDE90401FBF7CC
:104DF800EDF9FBF779FE18ED027A4346B5EE407AF5
:104E0800F1EE10FA07EE900A43F8040F13D158EDAB
:104E1800016AB7EE007AF4EE476AF1EE10FA0AD1A9
:104E28006A4AD8F8001010600122CAF80000CBF8CE
:104E38000010C4F86C26079A92ED007A7FE593ED8E
:104E4800017AF4EEC77AF1EE10FA7FF5F6AC614B11
:104E580000221A60F1E4B2EE007AF4EEC77AF1EEBD
:104E680010FA7AD5594ADFED5C7A83ED007A82ED43
:104E7800007A7BE52069FBF707FB4DA3D3E9002304
:104E8800FBF75AFB0022554BFBF780FCFBF72CFE87
:104E980005F5C46304F254661860FBF7F5FA024698
:104EA8000B4645A1D1E90001FBF78EF902460B46F6
:104EB80043A1D1E90001FBF787F9FBF715FE05F2DD
:104EC800246396ED009A186004F5CA630093FBF713
:104ED800DBFA41EC100B00F08BFE53EC102BCDE904
:104EE8000223009B69EE097AD3ED008AE8EEA87ADE
:104EF80078EEA88A17EE900AFBF7C6FA68EE897A68
:104F080005F5C563804617EE900A89460693FBF7B8
:104F1800BBFADDE90223FBF70FFB0B4602464946C5
:104F28004046FBF751F941EC100B00F0FDFF51EC46
:104F3800100BFBF7D9FD069B87ED008A07EE900A58
:104F480028601860FFF728BB254B079AD3ED007A35
:104F580092ED007AA3F10408F1E417EE900AFBF74A
:104F680093FA13A3D3E90023FBF7E6FA00221B4BBD
:104F7800FBF70CFCFBF7B8FD07EE900AF6E4984641
:104F880095ED167A1748D5ED017A104A58F804CDF0
:104F9800C0F800C077EE877A134811600022C5ED8B
:104FA800167A0160C4F86C2696E4F2EE047ACBE433
:104FB800182D4454FB210940764F1E166A4D0540B2
:104FC800F1D4C853FB21094084060020C8140020EE
:104FD80078060020140E002035FA0E3E0080664048
:104FE8001C0E00209C1300204C130020180E0020DB
:104FF8002DE9804800249BB0FBF7E8FDFEF78CFB09
:10500800CDE90F44CDE91144DFF87C831394D8F837
:105018001430CD48CD4DCE4ECE4FDFF8709343F4CB
:105028008003C8F81430D8F8143003F480030293CE
:10503800029BD8F8143043F40033C8F81430D8F879
:10504800143003F400330393039BD8F8143043F46B
:105058008023C8F81430D8F8143003F4802304935C
:105068002246C321049BFCF7EDFA22464FF4406127
:105078004FF09040FCF7E6FA4FF0020A0FA9B64845
:105088001194CDE90FA5FCF70BFA08230FA94FF0EF
:105098009040CDE910540F930125FCF701FAC32382
:1050A8000FA9A948CDE90F35CDE91144FCF7F8F966
:1050B8004FF440630FA94FF090400F93CDE910547F
:1050C8001294FCF7EDF9224621460720FCF70AF96D
:1050D8000720FCF73DF9224621460920FCF702F992
:1050E8000920FCF735F9D8F814302B43C8F81430E8
:1050F800D8F814302B402246214601930B20019BFF
:10510800FCF7F0F80B20FCF723F9224621460C2087
:10511800FCF7E8F80C20FCF71BF94FF0A0483046E4
:105128004FF0040BC6E901443461F5617462C6E9C5
:105138000B54F46035627463B461B463C6F80080DC
:10514800C6F814B00894CDE90F44CDE91144CDE96F
:105158001344CDE90944FBF7A9FD08A93046089492
:10516800FCF73AF80FA93046CDE90FA5CDE911446F
:10517800CDE91344FBF7A6FE784B3B603846C7F8E9
:1051880014B0C7E901443C61FD617C62C7E90B5476
:10519800FC603D627C63BC61BC630F94CDE9104444
:1051A800CDE912441494FBF781FD38460FA9CDE9E7
:1051B8000F55CDE91144CDE91344FBF783FE214691
:1051C8002C220FA80594CDE90844CDE90A44CDE97D
:1051D8000C440E94CDE9064402F07CFD6049C9F800
:1051E80010401222632360264846C9E90012C9E923
:1051F8000263C9E90544FDF7E5FA05A94846CDE982
:1052080005440794FDF74AFD4FF48073224608A928
:105218004846CDE90864CDE90D34CDE90A440C943B
:10522800FDF78AFC4FF000734FF400520FA948466F
:105238004C4F17931492CDE90F44CDE911441394C0
:10524800CDE91544CDE91844FDF74EFD484600F078
:10525800F5FA2022214610A802F03CFD4FF6FF790E
:105268004FF080430FA938464FF0030A3E4E3B608B
:10527800C7F80C90C7E901443C61BC61CDE908441A
:105288000A9411951595CDF83CA0FDF7B7FA384664
:1052980008A908940A94FDF701FD2022214610A8C8
:1052A80002F018FD314B33600FA93046C6F80C9058
:1052B800C6E901443461B4610894CDE90944CDF8E4
:1052C8003CA011951595FDF799FA08A93046089460
:1052D8000A94FDF7E3FC264B264E9C604FF4E1311F
:1052E8000C221846C3E900615A61C3E90344C3E9C3
:1052F8000644C3E90844FDF71BFF1F4BDFF89090F5
:105308001C61302107224FF4827E4FF4806C1846CE
:105318004FF430674FF40076C3E90661DA625D61E5
:10532800C3E908449C62C3E90C44C3E9009EC3E98D
:1053380002C7FDF733F8FEF74DFAFEF729FA0F4BCF
:105348000F4A1049996025E0000400480000111038
:10535800A4120020F01100200014004800010050A1
:10536800002C01400C1400204C12002000040040C6
:105378005814002000440040A813002008000240F0
:10538800A0120020400000500010024058130020D6
:1053980000300140DA605D601A682A431A60D8F864
:1053A8003030C8F83040D8F808302B43C8F80830F7
:1053B80043461A68002AFCD0D8684149414D424CFE
:1053C800424A40F00100D860D86840F00200D86036
:1053D800986840F00400986001238D60CC604B60B1
:1053E8000B6843F001030B600023116B1363936890
:1053F80043F00103936013461A68002AFCD0DA6868
:10540800334C344F9FED348ADFF8E480334D344E0B
:1054180042F00102DA60DA6842F00202DA609A6861
:1054280042F004029A604FF4806101224FF09040EC
:10543800FCF708F90720FBF7EDFB3C212948FDF7AD
:1054480039F93C212848FDF735F908212748FDF7A7
:10545800C5F8FBF7D9FB0122206002213046FCF792
:10546800F1F83B6943F007033B61FEF7ABF898EDB1
:10547800007AF7EE007AB4EE677AF1EE10FA1AD1F4
:10548800FFF712F8FEF7DCFE002202213046FCF797
:10549800D9F8FBF7B9FB236895ED197AC01A07EE1E
:1054A800900A27EE087AF8EE677AF4EEC77AF1EEFA
:1054B80010FAEED4CDE7FEF7D1FAFEF78BFCDFE762
:1054C8001C0002404001005044120020000100501E
:1054D800FC1200207C0F002000007A440800002005
:1054E800000400480C1400204C120020581300201F
:1054F800E40D0020022802D008281BD07047174A64
:10550800174813465433D3ED007AB7EE007AF4EE19
:10551800C77AF1EE10FA4FF0000148BF77EE877AAC
:10552800116058BF19604FF0000148BFC3ED007A01
:10553800FDF780B830B40B4B094803F21C61002515
:10554800002203F5C3640D6083F83C264FF07E55B6
:105558002560114630BCFDF76BB800BFE00D002098
:1055680058130020C8070020704700BF0A4B9A69EB
:1055780042F001029A619A6982B002F00102009237
:10558800009ADA6942F08052DA61DB6903F08053ED
:105598000193019B02B070470010024070B5026889
:1055A8008AB00023B2F1A04F0546CDE90533CDE915
:1055B800073309933AD0364B9A4201D00AB070BDEE
:1055C800344A13680133012B136056D0324B334CE5
:1055D8005A6942F400325A615B6903F40033049358
:1055E8001022032305A94FF09040CDE90523049E1E
:1055F800FBF756FF2A4B236080224FF480634FF459
:1056080080702021E26063614FF400520023206122
:10561800C4E906122046C4E90133FBF7BFFE08B10E
:10562800FFF7A2FFEC6365620AB070BD194A136800
:105638000133012B136015D0174B1A4C5A6942F4E9
:1056480000325A615B6903F4003302930222032398
:1056580005A94FF09040CDE90523029EFBF720FFF6
:10566800114BC8E70C4B5A6942F080525A615B698A
:1056780003F080530193019BDEE7074B5A6942F020
:1056880080525A615B6903F080530393039B9DE743
:1056980000010050740F002000100240CC140020BC
:1056A8001C0002400813002008000240F0B5026800
:1056B800204B89B000249A42CDE90344CDE9054442
:1056C800079401D009B0F0BD03F5604302279A6939
:1056D80042F480529A619A6902F480520092009AC8
:1056E8005A6942F400325A615A6902F4003201924E
:1056F800019A5A6942F480225A615B6903F4802353
:10570800029303262023052503A94FF09040029A0F
:10571800CDE90337CDE90665FBF7C2FE102303A9DF
:1057280005480497CDE9066505940393FBF7B8FE91
:1057380009B0F0BD00300140000400480268094B80
:105748009A4200D0704703F5644382B09A6942F4E4
:1057580000629A619B6903F400630193019B02B0A4
:10576800704700BF002C014070B503688AB0002460
:10577800B3F1804FCDE90544CDE90744099423D01E
:105788002B4A934201D00AB070BD2A4BDA6942F025
:105798000202DA61DA6902F002020392039A5A6994
:1057A80042F400325A615B6903F400330493C02267
:1057B800022305A94FF09040049C0993CDE90523E5
:1057C800FBF76EFE0AB070BD03F504330125DA69F4
:1057D80042F00102DA61DA6902F001020092009AED
:1057E8005A6942F400325A615A6902F4003201924D
:1057F800019A5A6942F480225A615B69059503F45B
:1058080080230293022605A94FF09040029B099538
:105818000696FBF745FE082305A90748069609954D
:10582800CDE907440593FBF73BFE0AB070BD00BF06
:1058380000040040001002400004004870B50168F0
:10584800144A86B000239142CDE90133CDE90333F0
:10585800059301D006B070BD03F1804303F504330E
:1058680001A95A6942F400325A615B6903F40033B2
:105878000093032206234FF4807502244FF09040D2
:10588800009ECDE90154CDE90423FBF709FE06B0DB
:1058980070BD00BF002C014070B50168184A88B07F
:1058A80000239142CDE90333CDE90533079301D0B5
:1058B80008B070BD03F1804303F5043303A9DA6926
:1058C80042F40032DA61DA6902F400320192019A94
:1058D8005A6942F400325A615B6903F40033029357
:1058E8000322072348F2040502244FF09040029E49
:1058F800CDE90354CDE90623FBF7D2FD08B070BD0E
:1059080000440040704700BF704700BFFBF770B904
:105918000220FBF79DBE00BF0820FBF799BE00BF21
:105928000148FBF76FBD00BF081300200148FBF7D3
:1059380069BD00BFCC1400201749184B184A1948F4
:1059480010B4D1F8884044F47004C1F888401C6849
:1059580044F001041C605C6822405A601A6822F016
:10596800847222F480321A601A6822F480221A6043
:105978005A6822F4FE025A60DA6A22F00F02DA62EA
:105988001A6B002410404FF0006218639C608A6014
:105998005DF8044B704700BF00ED00E000100240C6
:1059A8000CC07FF8CCFC00FF002B4DDD2DE9F04F3B
:1059B80087B0CDE904314FEAC309109B0292DB009E
:1059C8000193002300900393119B002B27DD059C76
:1059D800DDF808B04FF0000A109B002B2EDD019B6C
:1059E800009D0026002703EB0408D5E90023F4E80E
:1059F8000201FAF7A1FD02460B4630463946FAF78E
:105A0800E5FBA04506460F464D44EED1119B0AF131
:105A1800010A5345CBE900674446CB44DCD1029ADE
:105A2800039B08320292009A08320092049A0133CA
:105A38009A420393C8D107B0BDE8F08F019B0026B6
:105A480003EB04080027E1E7704700BF002A1CDDCC
:105A58002DE9F0414FEAC20C4FEAC3084FF0000E9F
:105A6800002B01EB080507DD0446D4E90067E1E8EF
:105A78000267A9426444F8D10EF1010E724500F1A3
:105A880008002946ECD1BDE8F0817047DFF834D032
:105A9800002103E00C4B5B58435004310B480C4B7E
:105AA80042189A42F6D30B4A02E0002342F8043B1C
:105AB800094B9A42F9D3FFF73FFF02F0E7F8FFF7E7
:105AC80097FAFEE700300020687F000800000020F9
